:020000000C28CA
:10000800A000030EA100210E8300A00E200E0900FF
:10001800031383160330850003138316003086000C
:1000280003178316033088000313831600309700E4
:100038000313831281309F000313831600309F003F
:10004800031383121F119F149F1828281E08A2004B
:10005800031383121F159F149F1830281E08A3002E
:100068002208230203193F2803193E28031C4220B3
:100078000318452024280030860008000130860037
:080088000800023086000800A8
:04400E00F120FF3F5F
:00000001FF
